:020000006F2B64
:10000800FF00030E8301EF000A088316AF008A0180
:100018000B1D15288312E20A0319E30A0B11063097
:10002800810083162F088A0083126F0E8300FF0E4B
:040038007F0E09002E
:04003C0000000800B8
:10004000083083120313FC002330FD00FD0B26282B
:06005000FC0B262808004D
:10005600103083120313FD00FD0B2F28000008004B
:1000660083160313C11B3A28831288133C28831274
:1000760088178316411B42288312081344288312CB
:1000860008178316C11A4A28831288124C2883122D
:1000960088168316411A522883120812542883128E
:1000A60008166C18582808155928081188151E2096
:1000B60088118316C1196228831288136428831253
:1000C6008817831641196A28831208136C2883122D
:1000D60008178316C118722883128812742883128F
:1000E6008816831641187A28831208127C288312F0
:1000F60008166C18802808158128081188151E20F6
:0E01060088116C1C8828202089282B200800D6
:0E011400033083120313FD00FD0B8E2808003C
:10012200831203136C1083163C08C10033206C1435
:020132000800C3
:1001340083160313BC01BE01BF011030C00004309C
:100144003F020318CF28F030831286008030F0007D
:100154007008063E840083164009F0007008800091
:100164001E201E200F3083120605F000700883162F
:10017400BD0070080319C9283E08BC003D080319D6
:10018400C728BD0CBD13BC0AC0280430BF00C00D75
:1001940040100430BE07BF0AA1283C08F000080044
:1001A400E428803083160313B800F728C030B80061
:1001B400F7289430B800F728D430B800F7288030F6
:1001C400B800F728831603133808013A0319D32813
:1001D4003808023A0319D8283808033A0319DB28E7
:1001E4003808043A0319DE28E1283903F0003808F6
:1001F400F0077008B8007008C10033206C10831633
:10020400BB013B083A0784000008031912293B0884
:100214003A0784000008BC0091208316BB0A032916
:0602240083126C140800B7
:10022A0083120313F801F9011030FC00710DF80D67
:10023A00F90D7408F8027508031C750FF902031802
:10024A002D297408F80775080318750FF9070310A4
:0A025A00F00DF10DFC0B1B2908004C
:10026400831603133A08F000BA03700803195A29D5
:10027400380884000008003A03194B29390884001F
:100284000008F1003808840000087106031D4B299A
:100294005729380884000008F00039088400000851
:1002A400F002F101031CF1035C29B80AB90A3229EE
:0602B400F001F101080059
:0E02BA00831203136E088A006D08820008008C
:1002C800831603133808F2007208F000F20A700867
:1002D8008400000803197129682938087202F0009F
:0C02E8000130F002F101031CF1030800DA
:1002F4008C29803083160313B8009F29C030B800BE
:100304009F299430B8009F29D430B8009F298030A9
:10031400B8009F29831603133808013A03197B296F
:100324003808023A031980293808033A0319832943
:100334003808043A0319862989293903F000380852
:10034400F0077008B80083126C1470088316C1009B
:1003540033206C1083163A08C10033206C14080053
:100364009A207008B8000F3083120605F0000319B4
:0E037400BD298A20B52983163808F00008003C
:1003820083160313B401063034020318CF2934084C
:100392003207840030308000B40AC429340832079E
:1003A2008400800100303106031DD9290030300657
:1003B200031DDC292F2AB30180303106F000803082
:1003C2007002031DE629003030020318F3290130C0
:1003D200B3003008003CB5003108031C013EB601F1
:1003E200B602F7293008B5003108B6000530B4006E
:1003F20000303606031DFF29003035060319282A6E
:1004020034083207B7000A30F4000030F50035082E
:10041200F0003608F10015217808F0007908F100A3
:100422003030F00783163708840070088000B40368
:100432000A30F4000030F5003508F0003608F1000B
:10044200152170088316B5007108B600F929330822
:0E04520003192F2A320884002D308000080084
:100460008B168B17831603138112811101148110CF
:0A047000011106308312810008001C
:10047A00013083160313C100332001308316B800FC
:10048A000130B9002030BA00D2208316A001A101A0
:10049A0080302106F00080307002031D562A033096
:1004AA0020020318E32A2008AB3E84000008003A21
:1004BA00031D682A2008AB3EB000B2213008840030
:1004CA0070088000582A2008AB3E84000008013AD0
:1004DA00031D742A2008AB3E8400373080002008B0
:1004EA00AB3E84000008023A031D802A2008AB3E76
:1004FA008400383080002008AB3E84000008033AAC
:10050A00031D8C2A2008AB3E840039308000200865
:10051A00AB3E84000008053A031D982A2008AB3E2A
:10052A008400343080002008AB3E84000008063A7C
:10053A00031DA42A2008AB3E840035308000200821
:10054A00AB3E84000008073A031DB02A2008AB3EE0
:10055A008400363080002008AB3E84000008093A47
:10056A00031DBC2A2008AB3E8400313080002008DD
:10057A00AB3E840000080A3A031DC82A2008AB3E95
:10058A008400323080002008AB3E840000080C3A18
:10059A00031DD42A2008AB3E840033308000023089
:1005AA00B800200AB9002008AB3E84000008BA004F
:1005BA007A218316A00A0319A10A4D2A0330FB00E7
:1005CA008A30FC005530FD00FD0BE92AFC0BE92AB4
:1005DA00FB0BE92A000000006430B80064217008AF
:1005EA00BA00AB30B8006830B90032210030710669
:1005FA00031D012B00307006031D062B0130F0008D
:0C060A000A2BAB01AC01AD013D2A080039
:100616008316031388110811081288120813881309
:1006260083128811081188130813881208122020D3
:10063600202020208816081688151E2088112020C4
:1006460088151E208811202088151E20881120203C
:10065600081288151E208811202088151E20881152
:100666008812881788151E208811202088130816DE
:1006760088151E208811081288151E208811202032
:1006860088151E208811081688151E20881120201E
:10069600081288151E20881188170817881608164C
:0C06A60088151E20881120206C1408000C
:1006B2005D218A110A128000840AED0A0319EE0AEA
:0806C200F003031D592B080091
:1006CA00803083120313F0007008063E8400FF3066
:0406DA008000080094
:1006DE005224831603138701831287010B2365238C
:1006EE000C308316C10033203D220130C10033206F
:1006FE0001308316B8000130B9005530BA00D2204F
:10070E000230FB008630FC009930FD00FD0B8D2B76
:10071E00FC0B8D2BFB0B8D2B01308316C100332070
:10072E0001308316B8000130B9004B30BA00D22028
:10073E000230FB008630FC009930FD00FD0BA52B2E
:10074E00FC0BA52BFB0BA52B01308316B80001303B
:10075E00B9003C30BA00D22030228316A901AA017A
:10076E0083126308013A031DBE2BF4306206031D8B
:10077E00FF2BE201E30183162908B0002A08B1001D
:10078E00A230B200C1210230B8000130B900A2304F
:10079E00BA00D2208316A90A0319AA0A83120710D7
:1007AE0087148030F000803083162A067002031DF5
:1007BE00E22B2908043C0318FF2B0230FB00043007
:1007CE00FC00BA30FD00FD0BEA2BFC0BEA2BFB0BF9
:1007DE00EA2B00000130C100332002308316B8002E
:1007EE000130B9003130BA00D22007108710002C2A
:0407FE00B72B002CE9
:1008A400203084004C3083120313F0000630ED0036
:0808B4000430EE005923080096
:10080C0045346E347434653472342034503461346D
:10081C007334733477346F347234643420343A3430
:02082C00003496
:10082E00733474346F34703420346D346F347434E4
:06083E006F347234003437
:1008440045346C34613470346534733465346434E1
:0E0854002034543469346D3465343A34003441
:1008620041346234643465346C3461347A346934CA
:040872007A340034A0
:10087600573465346C3463346F346D3465342034E6
:0A08860045344E344734203400346A
:0408900000340034FC
:080894003134323432340034F7
:08089C003134323432340034EF
:02400E004A2F37
:00000001FF
